:020000040800F2
:10000000A00700208901000853180008A112000869
:10001000511800088F020008BD18000800000000F9
:100020000000000000000000000000005718000859
:10003000C702000800000000551800085918000801
:10004000A3010008A3010008A3010008A301000800
:10005000A3010008A3010008A3010008A3010008F0
:10006000A3010008A3010008A3010008A3010008E0
:10007000A3010008A3010008A3010008A3010008D0
:10008000A301000891020008A3010008A3010008D1
:10009000A3010008A3010008A3010008A3010008B0
:1000A000A3010008A3010008A3010008A3010008A0
:1000B000A3010008A3010008A3010008A301000890
:1000C000A3010008A3010008A3010008A301000880
:1000D000A3010008A3010008A3010008A301000870
:1000E000A3010008A3010008A301000800F002F822
:1000F00000F03AF80AA090E8000C82448344AAF188
:100100000107DA4501D100F02FF8AFF2090EBAE885
:100110000F0013F0010F18BFFB1A43F0010318473B
:100120007C1800009C180000103A24BF78C878C1E1
:10013000FAD8520724BF30C830C144BF04680C60ED
:10014000704700000023002400250026103A28BF35
:1001500078C1FBD8520728BF30C148BF0B60704739
:100160001FB51FBD10B510BD00F05CF81146FFF7BC
:10017000F7FF01F0B5FB00F07AF803B4FFF7F2FFE8
:1001800003BC00F07DF8000009488047094800479B
:10019000FEE7FEE7FEE7FEE7FEE7FEE7FEE7FEE737
:1001A000FEE7FEE704480549054A064B7047000094
:1001B000BB180008ED000008A0010020A0070020E7
:1001C000A0030020A00300204FF0000200B513465A
:1001D00094469646203922BFA0E80C50A0E80C5067
:1001E000B1F12001BFF4F7AF090728BFA0E80C5018
:1001F00048BF0CC05DF804EB890028BF40F8042B11
:1002000008BF704748BF20F8022B11F0804F18BF7D
:1002100000F8012B704770477047704700487047DF
:10022000400100207546FFF7F9FFAE46050069461C
:10023000534620F00700854618B020B5FFF7B2FFFF
:10024000BDE820404FF000064FF000074FF00008D7
:100250004FF0000B21F00701AC46ACE8C009ACE858
:10026000C009ACE8C009ACE8C0098D46704710B5BC
:100270000446AFF300802046BDE81040FFF77DBF85
:1002800001491820ABBEFEE7260002007047FEE7DA
:10029000014800F067B80000FC00002030B590F87D
:1002A00040500124AC40C56B6C60046863604368D7
:1002B000102B036803D099600068C26030BD9A605B
:1002C0000068C16030BD704772B6FEE710B590F8A7
:1002D00021100024022903D00421816301243DE080
:1002E00001680A6822F00E020A6001680A6822F0BA
:1002F00001020A601A4A0168914201D1012121E0FC
:10030000174A1432914201D110211BE0144A2832BD
:10031000914201D1891515E0114A3C32914201D137
:1003200089140FE00E4A5032914202D14FF48031CD
:1003300008E00B4A6432914202D14FF4801101E08F
:100340004FF08071064A083A5160012180F821106F
:10035000002180F82010416B01B18847204610BD74
:10036000080002402DE9F05FC16B0C6801680B6862
:10037000D0F840C0042202FA0CF2494DDFF824A163
:10038000494E4A4FDFF828B1DFF828E122422CD04D
:100390005A072AD50A68920603D40A6822F0040292
:1003A0000A600168A94201D1042219E0514501D136
:1003B000402215E0B14202D14FF4806210E0B94210
:1003C00002D14FF480420BE0594502D14FF4802214
:1003D00006E0714502D14FF4800201E04FF08062E7
:1003E0002F4908394A60C16A3BE04FF0020808FA19
:1003F0000CF818EA040F4FF000094FF0010235D055
:100400005FEA837832D50B689B0605D40B6823F02E
:100410000A030B6080F821200168A94201D1022261
:1004200019E0514501D1202215E0B14202D14FF42B
:10043000007210E0B94202D14FF400520BE059456E
:1004400002D14FF4003206E0714502D14FF40012A0
:1004500001E04FF00072124908394A6080F820909C
:10046000816A00291AD0BDE8F05F0847082505FA1F
:100470000CF5254212D01B0710D50B6823F00E0394
:100480000B6090F84010C36B02FA01F1596082636F
:1004900080F8212080F82090016BE2E7BDE8F09F12
:1004A000080002401C0002403000024044000240AC
:1004B000580002406C00024030B528B308C8134908
:1004C00014221944B1FBF2F18900C1631049816320
:1004D000022141771A6843F6F0718A43D0E900148B
:1004E0002143D0E902452C43214304692143446957
:1004F0002143846921431143196000214163012292
:1005000042770177084630BD012030BDF8FFFDBFBE
:100510000000024070B5044690F820000025012834
:100520000CD0012084F8200094F821600020012ED6
:1005300006D084F820000225284670BD022070BD38
:10054000022684F82160A0632068066826F0010670
:1005500006602046FFF7A2FEE06A002820680168D6
:1005600002D041F00E0106E021F004010160206894
:10057000016841F00A0101602068016841F0010151
:100580000160D9E72DE9F84FDFF8B8910024A9F10F
:10059000040B23460F2709F1040AABF1040EC9E04E
:1005A0000125A5402A40AA427DD1674ED1F804C05A
:1005B000ACEB0608B44532D014DCBCF1030F3AD0E2
:1005C00009DCBCF1000F2AD0BCF1010F1CD0BCF13A
:1005D000020F31D11DE0BCF1110F17D0BCF1120F89
:1005E0002AD119E0B8F5881F19D006DCB8F5803F8C
:1005F00015D0B8F5801F1FD111E0B8F5001F0ED03F
:10060000B8F5041F18D10AE0CB6815E0CB681B1DB4
:1006100012E0CB6808330FE0CB680C330CE08B683A
:100620002BB1012B4FF0080303D0456104E00423F4
:1006300002E0056100E00023FF2A01D8064601E040
:1006400000F104064FEA840501D9A5F12005D6F88A
:10065000008007FA05FC28EA0C0803FA05F548EAC9
:100660000508C6F800804D68ED0062D5374DAE69CB
:1006700046F00106AE61AD6924F0030605F0010500
:100680000095334D06EB050CDCF80850A607360F35
:1006900007FA06F825EA0805DFF8B880404503D1D7
:1006A0004FF0000817E044E0DFF8AC80404502D18D
:1006B0004FF001080FE0DFF8A480404502D14FF071
:1006C000020808E0DFF89880404502D14FF00308A7
:1006D00001E04FF0040808FA06F848EA0508CCF8EB
:1006E00008804D68D9F80060ED024D4601D51643EB
:1006F00000E096432E604D68DAF80060AD02554682
:1007000001D5164300E096432E604D68DBF800608B
:10071000AD035D4601D5164300E096432E604D685B
:10072000DEF80060ED03754601D5164300E0964300
:100730002E60641C0D682A46E5407FF431AFBDE8A9
:10074000F88F000008040140000011100010024062
:100750000000014000080140000C01400010014071
:100760000014014001488068704700009800002094
:100770007047000070B5040025D094F83D000025B6
:1007800020B984F83C50204600F040FA242084F838
:100790003D002068016821F00101016020680168C6
:1007A00041F4004101602068016821F400410160CA
:1007B00000F09CFB4D4A6168914201D84C4900E031
:1007C0004C49884201D2012070BD4B492368B0FBDF
:1007D000F1F15E6826F03F060E435E606368934267
:1007E00006D94FF4967359434FF47A73B1FBF3F182
:1007F0002368491C1E6A26F03F063143196261686E
:10080000914210D84900401EB0FBF1F2521CC2F3D5
:100810000B02042A01D2042022E0B0FBF1F0401CBC
:10082000C0F30B001CE0A268F2B301EBC10303EBC1
:100830000116431EB3FBF6F35B1C43F480431B0518
:1008400049D092B301EBC10202EB0111401EB0FB93
:10085000F1F0401CC0F30B0040F4804040F4004035
:100860002168CA694CF6FF739A431043C861D4E902
:10087000071001432068026822F0C00211430160A2
:10088000D4E9030101432068826848F2FF339A43A8
:1008900011438160D4E9050108432168CA6822F048
:1008A000FF021043C86001E00EE016E02068016816
:1008B00041F0010101602564202084F83D0025639A
:1008C00084F83E50002070BD01EB4106431EB3FB8F
:1008D000F6F35B1CB3E70120C2E701EB4101401EC8
:1008E000B0FBF1F0401CC0F30B00B7E7A08601009D
:1008F00080841E0000093D0040420F007047000048
:100900000349884202D10349012008707047000062
:10091000A8000020000000202DE9FC5F99469246C7
:100920008B460446DDF83080FFF71CFF00250646A5
:10093000009594F83D00202828D1644846F2A8117B
:1009400020270068B0FBF1F000EBC00101EB0010C4
:1009500000900098401E009010D020688069C0432D
:100960008007F6D594F83C0001280FD0012084F8C8
:100970003C0020680168C9070BD00EE044F8305FE6
:100980006773A573206940F0200020610220BDE854
:10099000FC9F016841F0010101602068016821F4B9
:1009A00000610160222084F83D00402084F83E0070
:1009B0002564C4F824800D986085608D20854448A6
:1009C000E062C4F844B0C4F848A0C4F84C9025656F
:1009D000208D4FF0230800285FD0A06BE0B13D4987
:1009E0008162A16B3C480863A06BC562A06B456344
:1009F0002168238D1031626AA06BFFF78BFDA0B1D7
:100A000084F83D7084F83E5054F8400F40F01000D8
:100A100044F80409257049E084F83D7084F83E509C
:100A200054F8400F40F08000F2E7CDE900864B46D5
:100A300052465946204600F0EBFC88B1A06BFFF708
:100A400045FCA06B85622068016821F4806101602B
:100A5000258565852068016821F00101016025E098
:100A6000208D0128206813D0416841F480514160F5
:100A7000206841698169009184F83C50416841F4E3
:100A8000807141602068416841F4006141601BE071
:100A9000016821F480610160EAE7CDE900864B46F8
:100AA00052465946204600F0B3FC08B101206EE7DB
:100AB0002068416981690091016841F40071016019
:100AC00084F83D7084F83C50002060E7A4000020CA
:100AD0000000FFFFD9120008A31200082DE9FF4F04
:100AE00083B09A46DDE9119793460446DDF84080CD
:100AF000FFF738FE054694F83D0020287FD11923E2
:100B0000012240492046009500F080FD002876D162
:100B100094F83C00012872D0012084F83C00206841
:100B20000168C90703D1016841F001010160206833
:100B3000016821F400610160212084F83D0040201B
:100B400084F83E0000262664C4F82480A4F82A9085
:100B5000608D20852C48E062CDE9007553465A46E9
:100B60002046049900F0D2FC70B930E02A4639469C
:100B7000204600F0F1FD58B1206C042804D1206813
:100B8000016841F400710160012007B0BDE8F08FF9
:100B9000606A216800780861606A401C6062218D8B
:100BA000491E89B22185628D521E62852268536971
:100BB000DB435B070BD469B100781061606A401CAD
:100BC0006062208D401E2085608D401E6085208DD6
:100BD0000028CBD12A463946204600F0EBFC0028FD
:100BE000CAD154F83D0B016841F400710160202026
:100BF00004F81E09E67766770020C6E7FFE70220C3
:100C0000C3E70000020010000000FFFF70B586B0CF
:100C100000250646009501950295039500681A493E
:100C200088422ED1194CA06940F00800A061A0694B
:100C3000694600F008000490C02000901220019046
:100C4000032003901248FFF79DFCE06940F4001078
:100C5000E061E069104C00F4001004900D48C4E914
:100C600000058020C4E9025020202561C4E9055018
:100C70002046E561FFF720FC08B1FFF725FBB463D0
:100C8000666206B070BD00000054004000100240D3
:100C9000000C014080000240FC00002070477047BB
:100CA00002488168027811448160704798000020F2
:100CB000074810B5016841F010010160032000F001
:100CC0006DF80F2000F006F800F024F8002010BDA9
:100CD0000020024070B50D4D04464FF47A7128781B
:100CE000B1FBF0F00A490968B1FBF0F000F0C4FA7A
:100CF00048B9102C07D200222146501E00F02EF8D1
:100D000000206C6070BD012070BD000098000020C4
:100D1000A4000020094808B5816941F00101816102
:100D2000816901F001010091C16941F08051C16107
:100D3000C06900F08050009008BD00000010024023
:100D4000002809DB00F01F020121914040098000CA
:100D500000F1E020C0F8001170470000F0B40E4B25
:100D60001B680C46C3F30223C3F10705042D00D909
:100D70000425191D072901D2002300E0DB1E0126EE
:100D800006FA05F1491E214099409E40761E164004
:100D90003143F0BC00F093BD0CED00E0064900F0DB
:100DA000070208684FF6FF03184040EA0220034A92
:100DB00010430860704700000CED00E00000FA05E9
:100DC0002DE9F0470F46050061D0434E306800F032
:100DD0000700B84209D2306820F00700384330607D
:100DE000306800F00700B84251D128683B4C8107B9
:100DF00012D5400703D5606840F4E0606060287851
:100E0000000703D5606840F4605060606068A968BE
:100E100020F0F000084360602878C00728D0686898
:100E2000012810D02168022810D0890700292EDA65
:100E3000616821F0030101436160FFF793FC804684
:100E400041F288390DE021688903EFE78901EDE778
:100E5000FFF788FCA0EB0801494502D90320BDE853
:100E6000F0876068696800F00C00B0EB810FEFD18B
:100E7000306800F00700B8420BD9306820F0070056
:100E800038433060306800F00700B84201D00120DC
:100E9000E5E72878400705D56068E96820F4E06058
:100EA000084360602878000706D56068296920F447
:100EB000605040EAC100606000F028F86168084AAC
:100EC000C1F30311515CC840064908600648006838
:100ED000FFF700FF0020C2E70020024000100240A0
:100EE00082190008A40000209C0000200448054945
:100EF00000684968044AC1F30221515CC840704748
:100F0000A400002000100240921900080E4A516807
:100F10000E4801F00C03042B11D0082B0FD10C4804
:100F2000C1F38343C903C05C0AD55168084AC1F3C1
:100F30004041921E515C054A5043B0FBF1F07047AE
:100F400004494843704700000010024000127A0034
:100F50007219000800093D002DE9F84F040070D017
:100F60002078C04DC00749D06868C0F381000128CF
:100F700007D06868C0F38100022809D16868C003FF
:100F800006D52868800339D560680028E7D035E0A9
:100F90006068B0F5803F0BD010B1B0F5A02F11D034
:100FA000286820F480302860286820F4802002E03F
:100FB000286840F480302860606890B1FFF7D2FB69
:100FC00006460AE0286840F480202860F0E700BF69
:100FD000FFF7C8FB801B642873D828688003F7D507
:100FE0000CE0FFF7BFFB064605E000BFFFF7BAFBCA
:100FF000801B6428F0D828688003F7D420789A4EA4
:1010000080074FF001094FF0000839D5686810F0EB
:101010000C0F07D06868C0F38100022809D1686806
:10102000C00306D42868800714D52069012808D198
:1010300010E02069B0B1C6F80090FFF793FB0746B7
:1010400005E00AE1FFF78EFBC01B0228C4D8286820
:101050008007F7D52868616920F0F80040EAC100F0
:1010600028600DE0C6F80080FFF77CFB074604E02F
:10107000FFF778FBC01B022823D828688007F7D425
:10108000207800072CD57948A169D9B1C0F8009023
:10109000FFF768FB074604E0FFF764FBC01B02286C
:1010A0000FD8686A8007F7D571484FF4FA51006885
:1010B000B0FBF1F0009000BF0098411E0091FAD201
:1010C0000EE080E0C0F80080FFF74CFB074604E02C
:1010D000FFF748FBC01B022875D8686A8007F7D461
:1010E0002078400760D5E8690027C00008D4E86987
:1010F00040F08050E861E869012700F080500090DE
:101100005C480168C90513D40168834641F48071C5
:101110000160FFF727FB824606E000BFFFF722FBD6
:10112000A0EB0A0064284ED8DBF80000C005F5D516
:10113000E06801280AD008B1052813D0286A20F0F9
:1011400001002862286A20F0040002E0286A40F0CA
:1011500001002862E06841F2883B98B1FFF702FB8A
:1011600082460BE0286A40F004002862EEE700BFE8
:10117000FFF7F8FAA0EB0A0159455AD8286A800708
:10118000F6D50CE0FFF7EEFA824605E0FFF7EAFA43
:10119000A0EB0A0159454CD8286A8007F6D41FB144
:1011A000E86920F08050E861E06988B36968C1F3BC
:1011B0008101022944D00228C6F8608004D0FFF7DC
:1011C000D1FA044638E034E0FFF7CCFA074604E0F1
:1011D000FFF7C8FAC01B02282BD828688001F7D473
:1011E000206AB0F5803F05D16868A16820F400301E
:1011F00008436860D4E908010843696821F4741160
:1012000008436860C6F86090FFF7ACFA044606E051
:1012100025E000BFFFF7A6FA001B022809D82868BE
:101220008001F7D51BE000BFFFF79CFA001B0228E6
:1012300002D90320BDE8F88F28688001F4D40EE0BD
:101240000128F7D06868226A00F48031914204D105
:10125000616A00F47010884201D00120EAE70020A2
:10126000E8E70000001002400000424280044242D1
:10127000A40000200070004010B5401EB0F1807F37
:1012800001D3012010BD4FF0E02460610F216017F1
:1012900000F015FB0020A06107202061002010BD98
:1012A000FEE710B5406A0021426B02B19162826B89
:1012B00002B191620268136823F480631360418570
:1012C000202280F83D2080F83E10016C41F0100192
:1012D0000164FFF74DFA10BD2DE9F041446A94F81E
:1012E0003D2094F83E50E16A2068436823F440733F
:1012F0004360636B002003B19862A36B03B19862F3
:10130000212333EA02074FF022060CD036EA020707
:1013100001D1202D07D094F83E20002A21D0628DE3
:10132000012A20D024E021684D6825F400654D6035
:1013300060852820292A02D02A2A07D00CE02363BE
:1013400084F83D002046FFF7AAFC05E0266384F8F8
:101350003D002046FFF7A2FC2068416841F440713F
:101360004160BDE8F0812268136823F48063136054
:101370002268536823F44073536011F5803F06D010
:10138000082904D0B1F12A4F01D0202904D12168C5
:101390000A6842F400720A6021684A6822F48052A6
:1013A0004A6021684A6822F400624A606085216CC4
:1013B00019B12046FFF7DCF9D3E7202184F83D106E
:1013C00094F83E1084F83E00402905D01220206396
:1013D0002046FFF793FAC4E720632046FFF790FA10
:1013E000BFE701684A69D24352050FD46FF48062A7
:1013F0004A61002140F8301F202242738173026944
:1014000042F004020261017301207047002070471E
:101410002DE9F84F0446006889460B9D01689846FF
:10142000174641F4806101602068016841F48071D1
:10143000016000954FF0011B0022594620460A9B8F
:1014400000F0E4F84FF4007A40B120680068C0056D
:1014500001D5C4F840A00320BDE8F88F216809F049
:10146000FE0008612B46284920460A9A00F016F92A
:10147000F0BB20684169806900902A4620460A999D
:1014800000F06AF940B1206C04283AD12068016864
:1014900041F40071016034E0FEB2B8F1010F09D0EF
:1014A0002168380A08612A4620460A9900F054F952
:1014B0000028E8D1206806612A4620460A9900F0F3
:1014C0004BF90028DFD12068016841F48071016088
:1014D00000950022594620460A9B00F097F8002804
:1014E000B3D1216809F0FF0040F00100086100E07D
:1014F00007E02B46044920460A9A00F0CFF800285E
:10150000AAD00120A8E70000020001002DE9F8435D
:10151000044600680D46DDE90897016898461646BE
:1015200041F4807101604B4600224FF001112046CA
:10153000009700F06BF848B120680068C00502D53C
:101540004FF4007020640320BDE8F883216805F0A3
:10155000FE0008613B464A461549204600F09EF8C9
:1015600088B920684169806900903A46494620461A
:1015700000F0F2F848B1206C042804D1206801681A
:1015800041F4007101600120DEE7F5B2B8F1010F0E
:1015900009D02168300A08613A464946204600F0E1
:1015A000DBF80028E7D1206805610020CCE70000C7
:1015B0000200010070B516460D4604461EE02046A6
:1015C000FFF70FFF08B1012070BD681C16D0FFF7B0
:1015D000C9F8801BA84200D885B920684069C0437B
:1015E00040070BD5002044F8300F20216173A07311
:1015F000216941F0200121612073E4E720684069FE
:10160000C0434007DBD4002070BD00002DE9F04747
:10161000984617460D460446C1F30746DDF820906C
:101620002AE000BFB8F1FF3F26D0FFF79BF8A0EB00
:101630000901414502D8B8F1000F1DD12068012EE3
:1016400016D0806925EA00000004000C12D00020AA
:10165000B84211D1002044F8300F20216173A073EB
:10166000216941F02001216120730120BDE8F0874C
:101670004069E7E70120EBE72068012E0AD0806986
:1016800025EA00000004000C06D00020B842C9D0B2
:101690000020EBE74069F3E70120F7E72DE9F04789
:1016A000984616460D4604464FF000094FF0200AB2
:1016B000C1F3074723E020684069C043400515D4C3
:1016C0002068016841F40071016021686FF4806056
:1016D0004861C4F8309084F83DA084F83E90216CB5
:1016E00041F00401216484F83C9021E0701C06D094
:1016F000FFF738F8A0EB0800B04203D816B1012F6D
:101700001FD021E02068012F15D0806925EA000054
:101710000004000C18D000BF44F8309F84F80DA0DE
:1017200084F80E90216941F02001216184F80C9029
:101730000120BDE8F087406925EA00000004000CA4
:10174000EAD12068406901E02068806925EA00004C
:101750000004000CAFD1ECE770B516460D46044608
:101760001EE02046FFF73DFE08B1012070BD681C59
:1017700016D0FEF7F7FF801BA84200D885B9206875
:101780004069C04300060BD5002044F8300F2021EB
:101790006173A073216941F0200121612073E4E7A6
:1017A00020684069C0430006DBD4002070BD000003
:1017B0002DE9F041254E86B0002580463570012484
:1017C00004A8CDE9000423467522D0214046FFF746
:1017D000A3F830780028FCD09DF81000682803D0CA
:1017E000012006B0BDE8F08103AF8DF80C506426EF
:1017F0000097CDE9014601236B22D0214046FFF737
:101800006DF907208DF80C000097CDE90146012302
:101810001922D0214046FFF761F98DF80C5000974E
:10182000CDE9014601231C22D0214046FFF756F99D
:101830008DF80C500097CDE9014601231B22D021E1
:101840004046FFF74BF90020CBE7000000000020E6
:10185000FEE7FEE770477047FFF722BA30B58FB05A
:1018600028216846FEF7B0FC14210AA8FEF7ACFC5C
:1018700001210804CDE900100024029402250491FE
:10188000CDE907504FF4E01009906846FFF764FB7C
:1018900008B172B6FEE70F20CDE90A054FF480606B
:1018A000CDE90C4002210AA80E94FFF789FA00281E
:1018B00001D072B6FEE70FB030BD7047FEE70907F2
:1018C000090E002804DB00F1E02080F800147047C6
:1018D00000F00F0000F1E02080F8141D70470000B8
:1018E00008B5FFF7E5F91E48FFF762FF00B1FEE714
:1018F000FFF7B4FF1B48816941F0200181618169D4
:1019000001F020010091816941F008018161816944
:1019100001F008010091416941F001014161406914
:10192000002200F00100009011461120FFF716FA86
:101930001120FFF705FA0A480B494FF48042016075
:101940000A49416000218160C0E90312416181615F
:10195000C1610162FEF70EFF08B172B6FEE7FEE755
:10196000A80000200010024000540040801A060029
:10197000010202030405060708090A0B0C0D0E0FED
:101980001010000000000000000001020304060720
:10199000080900000000010203040000BC1900084F
:1019A00000000020A800000028010008641A0008B8
:1019B000A8000020F8060000440100080000000014
:1019C00000000000000000E04D62503F000000C039
:1019D0007493683F000000E051B89E3F0000000093
:1019E00000000000000000000000000000000000F7
:1019F00000000000000000000000000000000000E7
:101A0000000000000000000000000000000000E0F6
:101A10004D62503F000000C07493683F000000E03A
:101A200051B89E3F000000000000000000000000D0
:101A300000000000000000000000000000000000A6
:101A40000000000000000000000000000000000096
:101A50000000000001000000100000000000000075
:041A60000024F4006A
:04000005080000ED02
:00000001FF
